<!DOCTYPE html>
<html lang="en">

<!-- Head tag -->
<head><meta name="generator" content="Hexo 3.8.0">
    <meta charset="utf-8">
    <meta http-equiv="X-UA-Compatible" content="IE=edge">
    <meta name="google-site-verification" content="xBT4GhYoi5qRD5tr338pgPM5OWHHIDR6mNg1a3euekI">
    <meta name="viewport" content="width=device-width, initial-scale=1">
    <meta name="description" content>
    <meta name="keyword" content>
    <link rel="shortcut icon" href="/images/favicon.png">
    <!-- Place this tag in your head or just before your close body tag. -->
    <script async defer src="https://buttons.github.io/buttons.js"></script>
    <title>
        
          建立 Go Ethereum 私有網路鏈 - ShenHengheng&#39;s Blog
        
    </title>

    <link rel="canonical" href="https://readailib.github.io/2017/05/25/blockchain/multi-node-geth/">

    <!-- Bootstrap Core CSS -->
    <link rel="stylesheet" href="/css/bootstrap.min.css">

    <!-- Custom CSS -->
    <link rel="stylesheet" href="/css/beantech.min.css">

    <!-- Pygments Highlight CSS -->
    <link rel="stylesheet" href="/css/highlight.css">

    <link rel="stylesheet" href="/css/widget.css">

    <link rel="stylesheet" href="/css/rocket.css">

    <link rel="stylesheet" href="/css/signature.css">

    <link rel="stylesheet" href="/css/toc.css">

    <!-- Custom Fonts -->
    <!-- <link href="https://maxcdn.bootstrapcdn.com/font-awesome/4.3.0/css/font-awesome.min.css" rel="stylesheet" type="text/css"> -->
    <!-- Hux change font-awesome CDN to qiniu -->
    <link href="https://cdn.staticfile.org/font-awesome/4.5.0/css/font-awesome.min.css" rel="stylesheet" type="text/css">


    <!-- Hux Delete, sad but pending in China
    <link href='http://fonts.googleapis.com/css?family=Lora:400,700,400italic,700italic' rel='stylesheet' type='text/css'>
    <link href='http://fonts.googleapis.com/css?family=Open+Sans:300italic,400italic,600italic,700italic,800italic,400,300,600,700,800' rel='stylesheet' type='text/
    css'>
    -->


    <!-- HTML5 Shim and Respond.js IE8 support of HTML5 elements and media queries -->
    <!-- WARNING: Respond.js doesn't work if you view the page via file:// -->
    <!--[if lt IE 9]>
        <script src="https://oss.maxcdn.com/libs/html5shiv/3.7.0/html5shiv.js"></script>
        <script src="https://oss.maxcdn.com/libs/respond.js/1.4.2/respond.min.js"></script>
    <![endif]-->

    <!-- ga & ba script hoook -->
    <script></script>
</head>


<!-- hack iOS CSS :active style -->
<body ontouchstart="">
	<!-- Modified by Yu-Hsuan Yen -->
<!-- Post Header -->
<style type="text/css">
    header.intro-header{
        
            background-image: url('undefined')
            /*post*/
        
    }
    
</style>

<header class="intro-header">
    <!-- Signature -->
    <div id="signature">
        <div class="container">
            <div class="row">
                <div class="col-lg-8 col-lg-offset-2 col-md-10 col-md-offset-1">
                
                    <div class="post-heading">
                        <div class="tags">
                            
                              <a class="tag" href="/tags/#Ethereum" title="Ethereum">Ethereum</a>
                            
                              <a class="tag" href="/tags/#Blockchain" title="Blockchain">Blockchain</a>
                            
                        </div>
                        <h1>建立 Go Ethereum 私有網路鏈</h1>
                        <h2 class="subheading"></h2>
                        <span class="meta">
                            Posted by ShenHengheng on
                            2017-05-25
                        </span>
                    </div>
                


                </div>
            </div>
        </div>
    </div>
</header>


    <!-- Navigation -->
<nav class="navbar navbar-default navbar-custom navbar-fixed-top">
    <div class="container-fluid">
        <!-- Brand and toggle get grouped for better mobile display -->
        <div class="navbar-header page-scroll">
            <button type="button" class="navbar-toggle">
                <span class="sr-only">Toggle navigation</span>
                <span class="icon-bar"></span>
                <span class="icon-bar"></span>
                <span class="icon-bar"></span>
            </button>
            <a class="navbar-brand" href="/">ShenH.&#39;s Blog</a>
        </div>

        <!-- Collect the nav links, forms, and other content for toggling -->
        <!-- Known Issue, found by Hux:
            <nav>'s height woule be hold on by its content.
            so, when navbar scale out, the <nav> will cover tags.
            also mask any touch event of tags, unfortunately.
        -->
        <div id="huxblog_navbar">
            <div class="navbar-collapse">
                <ul class="nav navbar-nav navbar-right">
                    <li>
                        <a href="/">Home</a>
                    </li>

                    

                        
                    

                        
                        <li>
                            <a href="/about/">About Me</a>
                        </li>
                        
                    

                        
                        <li>
                            <a href="/archive/">Archives</a>
                        </li>
                        
                    

                        
                        <li>
                            <a href="/tags/">tags</a>
                        </li>
                        
                    

                        
                    

                        
                    

                        
                    

                        
                    

                        
                    

                        
                    

                        
                    

                        
                    

                        
                    

                        
                    

                        
                    

                        
                    

                        
                    

                        
                    

                        
                    

                        
                    

                        
                    

                        
                    

                        
                    

                        
                    

                        
                    

                        
                    

                        
                    

                        
                    

                        
                    

                </ul>
            </div>
        </div>
        <!-- /.navbar-collapse -->
    </div>
    <!-- /.container -->
</nav>
<script>
    // Drop Bootstarp low-performance Navbar
    // Use customize navbar with high-quality material design animation
    // in high-perf jank-free CSS3 implementation
    var $body   = document.body;
    var $toggle = document.querySelector('.navbar-toggle');
    var $navbar = document.querySelector('#huxblog_navbar');
    var $collapse = document.querySelector('.navbar-collapse');

    $toggle.addEventListener('click', handleMagic)
    function handleMagic(e){
        if ($navbar.className.indexOf('in') > 0) {
        // CLOSE
            $navbar.className = " ";
            // wait until animation end.
            setTimeout(function(){
                // prevent frequently toggle
                if($navbar.className.indexOf('in') < 0) {
                    $collapse.style.height = "0px"
                }
            },400)
        }else{
        // OPEN
            $collapse.style.height = "auto"
            $navbar.className += " in";
        }
    }
</script>


    <!-- Main Content -->
    <!-- Modify by Yu-Hsuan Yen -->

<!-- Post Content -->
<article>
    <div class="container">
        <div class="row">

            <!-- Post Container -->
            <div class="
                col-lg-8 col-lg-offset-2
                col-md-10 col-md-offset-1
                post-container">

                <p>Ethereum 專案是以區塊鏈原理，並進一步增加容納值、儲存資料，並且能封裝程式碼來建立智能合約(Smart Contracts)，形成區塊鏈應用程式，來執行運算任務。類似於比特幣(Bitcoin)，Ethereum 也具有一種貨幣，它叫做<code>乙太幣(Ether)</code>。乙太幣是開採於儲存在共享一致性的區塊鏈前驗證交易節點。乙太幣可以在賬戶(公有金鑰, Pubilc keys)與智能合約(Smart Contracts)之間進行轉移。</p>
<p><img src="/images/blockchain/ethereum-logo.png" alt="ethereum-logo"></p>
<p>本節將說明如何透過 Ubuntu 部署 Go Ethereum。並利用簡單的指令來進行 Demo。</p>
<a id="more"></a>
<h2 id="事前準備"><a href="#事前準備" class="headerlink" title="事前準備"></a>事前準備</h2><p>本次會使用到兩個節點來建立 Geth Instances，其規格如下：</p>
<table>
<thead>
<tr>
<th>Role</th>
<th>CPUs</th>
<th>RAM</th>
<th>Disk</th>
</tr>
</thead>
<tbody>
<tr>
<td>geth-1</td>
<td>2vCPU</td>
<td>4 GB</td>
<td>40 GB</td>
</tr>
<tr>
<td>geth-2</td>
<td>2vCPU</td>
<td>4 GB</td>
<td>40 GB</td>
</tr>
</tbody>
</table>
<p>首先在每個節點安裝 Ethereum 最新版本，可以依照官方透過以下方式快速安裝：</p>
<pre><code class="sh">$ sudo apt-get install -y software-properties-common
$ sudo add-apt-repository -y ppa:ethereum/ethereum
$ sudo apt-get update &amp;&amp; sudo apt-get install ethereum
</code></pre>
<p>在每個節點建立一個<code>private.json</code>檔案來定義起源區塊(Genesis Block)，內容如下：</p>
<pre><code class="json">{
  &quot;coinbase&quot; : &quot;0x0000000000000000000000000000000000000000&quot;,
  &quot;difficulty&quot; : &quot;0x40000&quot;,
  &quot;extraData&quot; : &quot;Custem Ethereum Genesis Block&quot;,
  &quot;gasLimit&quot; : &quot;0xffffffff&quot;,
  &quot;nonce&quot; : &quot;0x0000000000000042&quot;,
  &quot;mixhash&quot; : &quot;0x0000000000000000000000000000000000000000000000000000000000000000&quot;,
  &quot;parentHash&quot; : &quot;0x0000000000000000000000000000000000000000000000000000000000000000&quot;,
  &quot;timestamp&quot; : &quot;0x00&quot;,
  &quot;config&quot;: {
        &quot;chainId&quot;: 123,
        &quot;homesteadBlock&quot;: 0,
        &quot;eip155Block&quot;: 0,
        &quot;eip158Block&quot;: 0
    },
    &quot;alloc&quot;: { }
}
</code></pre>
<p>初始化創世區塊：</p>
<pre><code class="sh">$ geth init --datadir=data/ private.json
</code></pre>
<p>在每個節點新增一名稱為<code>geth-private.sh</code>的腳本程式，將用於啟動 geth，並放置背景：</p>
<pre><code class="sh">#!/bin/bash
# Program:
#       This program is a private geth runner.
# History:
# 2016/05/22 Kyle Bai Release
#
echo &quot;Starting private geth&quot;
screen -dmS geth /usr/bin/geth \
            --datadir data/ \
            --networkid 123 \
            --nodiscover \
            --maxpeers 5 \
            --port 30301 \
            --rpc \
            --rpcaddr &quot;0.0.0.0&quot; \
            --rpcport &quot;8545&quot; \
            --rpcapi &quot;admin,db,eth,debug,miner,net,shh,txpool,personal,web3&quot; \
            --rpccorsdomain &quot;*&quot; \
            -verbosity 6
</code></pre>
<blockquote>
<p>更多的參數，請參考 <a href="https://github.com/ethereum/go-ethereum/wiki/Command-Line-Options" target="_blank" rel="noopener">Command-Line-Options</a>。</p>
</blockquote>
<p>建立完成後，修改執行權限：</p>
<pre><code class="sh">$ chmod u+x geth-private.sh
</code></pre>
<h2 id="建立-Ethereum-環境"><a href="#建立-Ethereum-環境" class="headerlink" title="建立 Ethereum 環境"></a>建立 Ethereum 環境</h2><p>首先進入到<code>geth-1</code>節點透過以下方式來啟動：</p>
<pre><code class="sh">$ ./geth-private.sh
Starting private geth
</code></pre>
<blockquote>
<p>這時候會透過 screen 執行於背景，我們可以透過<code>screen -x geth</code>來進行前景。若要回到背景則透過<code>[Ctrl-A] + [Ctrl-D]</code>來 detached。要關閉 screen 則透過 <code>[Ctrl-C]</code>。</p>
</blockquote>
<p>接著為了確認是否正確啟動，我們可以透過 geth 的 attach 指令來連接 console：</p>
<pre><code class="sh">$ geth attach ipc:data/geth.ipc
</code></pre>
<blockquote>
<p>也可以透過 HTTP 方式 attach，<code>geth attach http://localhost:8545</code>。<br>若一開始建立沒有 RPC，但想要加入 RPC 可以 attach 後，輸入以下 function：</p>
<pre><code class="sh">admin.startRPC(&quot;0.0.0.0&quot;, 8545, &quot;*&quot;, &quot;web3,db,net,eth&quot;)
</code></pre>
</blockquote>
<p>進入後透過 admin API 來取得節點的資訊：</p>
<pre><code class="sh">&gt; admin.nodeInfo.enode
&quot;enode://e3dd0392a2971c4b0c4c43a01cd682e19f31aaa573c43a9b227685af7ffed5070217392ae5ada278968d5c4bfddd9c93547bcf4592852196a8facbcdad64d257@[::]:30301?discport=0&quot;
</code></pre>
<blockquote>
<p>這邊要取代<code>[::]</code>為主機 IP，如以下：</p>
<pre><code>&quot;enode://e3dd0392a2971c4b0c4c43a01cd682e19f31aaa573c43a9b227685af7ffed5070217392ae5ada278968d5c4bfddd9c93547bcf4592852196a8facbcdad64d257@172.16.1.99:30301?discport=0&quot;
</code></pre></blockquote>
<p>上面沒問題後，接著進入到<code>geth-2</code>節點，然後透過以下指令開啟 console：</p>
<pre><code class="sh">$ geth init --datadir=data/ private.json
$ geth --datadir data/ \
       --networkid 123 \
       --nodiscover \
       --maxpeers 5 \
       --port 30301 \
       --rpc \
       --rpcaddr &quot;0.0.0.0&quot; \
       --rpcport &quot;8545&quot; \
       --rpcapi &quot;admin,db,eth,debug,miner,net,shh,txpool,personal,web3&quot; \
      --rpccorsdomain &quot;*&quot; \
      -verbosity 6 \
       console
</code></pre>
<blockquote>
<p>也可以透過上一個節點的方式將服務放到背景，在 attach。</p>
</blockquote>
<p>完成上面指令會直接進入 console，接著透過以下方式來連接<code>geth-1</code>：</p>
<pre><code class="sh">&gt; admin.addPeer(&quot;enode://e3dd0392a2971c4b0c4c43a01cd682e19f31aaa573c43a9b227685af7ffed5070217392ae5ada278968d5c4bfddd9c93547bcf4592852196a8facbcdad64d257@172.16.1.99:30301?discport=0&quot;)
true

I0525 12:56:40.623642 eth/downloader/downloader.go:239] Registering peer e3dd0392a2971c4b
I0525 12:57:10.622920 p2p/server.go:467] &lt;-taskdone: wait for dial hist expire (29.99999387s)
</code></pre>
<p>接著透過 net API 進行查看連接狀態：</p>
<pre><code class="sh">&gt; net.peerCount
1

&gt; admin.peers
[{
    caps: [&quot;eth/61&quot;, &quot;eth/62&quot;, &quot;eth/63&quot;],
    id: &quot;e3dd0392a2971c4b0c4c43a01cd682e19f31aaa573c43a9b227685af7ffed5070217392ae5ada278968d5c4bfddd9c93547bcf4592852196a8facbcdad64d257&quot;,
    name: &quot;Geth/v1.4.5-stable/linux/go1.5.1&quot;,
    network: {
      localAddress: &quot;172.16.1.100:51038&quot;,
      remoteAddress: &quot;172.16.1.99:30301&quot;
    },
    protocols: {
      eth: {
        difficulty: 131072,
        head: &quot;882048e0d045ea48903eddb4c50825a4e3c6c1a055df6a32244e9a9239f8c5e8&quot;,
        version: 63
      }
    }
}]
</code></pre>
<h2 id="驗證服務"><a href="#驗證服務" class="headerlink" title="驗證服務"></a>驗證服務</h2><p>這部分將透過幾個指令與流程來驗證服務，首先在<code>geth-1</code>透過 attach 進入，並建立一個賬戶與查看乙太幣：</p>
<pre><code class="sh">$ geth attach http://localhost:8545

&gt; kairen = personal.newAccount();
Passphrase:
Repeat passphrase:
&quot;0xcb41ad8ba28c4b8b52eee159ef3bb6da197ff60b&quot;

&gt; personal.listAccounts
[&quot;0xcb41ad8ba28c4b8b52eee159ef3bb6da197ff60b&quot;]

&gt; web3.fromWei(eth.getBalance(kairen), &quot;ether&quot;);
0
</code></pre>
<blockquote>
<p>P.S. 若要移除帳號，可以刪除<code>data/keystore</code>底下的檔案。</p>
</blockquote>
<p>接著在<code>geth-2</code>透過以下指令建立一個賬戶與查看乙太幣：</p>
<pre><code class="sh">&gt; pingyu = personal.newAccount();
Passphrase:
Repeat passphrase:
&quot;0xf8c70df559cb9225f6e426d0f139fd6e8752c644&quot;

&gt; personal.listAccounts
[&quot;0xf8c70df559cb9225f6e426d0f139fd6e8752c644&quot;]

&gt; web3.fromWei(eth.getBalance(pingyu), &quot;ether&quot;);
0
</code></pre>
<p>接著回到<code>geth-1</code>來賺取一些要交易的乙太幣：</p>
<pre><code class="sh">&gt; miner.setEtherbase(kairen)
true
</code></pre>
<p>當賬戶設定完成後，就可以執行以下指令進行採礦：</p>
<pre><code class="sh">&gt; miner.start(1)
true
</code></pre>
<blockquote>
<p>這邊需要一點時間產生 DAG，可以開一個新的命令列透過<code>screen -x geth</code>查看。<br>經過一段時間後，當 DAG 完成並開始採擴時就可以<code>miner.stop()</code>。</p>
</blockquote>
<p>接著在<code>geth-1</code>查看賬戶的乙太幣：</p>
<pre><code class="sh">&gt; web3.fromWei(eth.getBalance(kairen), &quot;ether&quot;);
40.78125
</code></pre>
<p>當成開採區塊後，就可以查看<code>geth-1</code>共採集的 ether balance 的數值：</p>
<pre><code>&gt; eth.getBalance(eth.coinbase).toNumber()
40781250000000000000
</code></pre><blockquote>
<p>即為<code>40.78125</code>乙太幣。</p>
</blockquote>
<p>接著我們要在將<code>geth-1</code>的賬戶乙太幣轉移到<code>geth-2</code>上，首先在<code>geth-1</code>上建立一個變數來存<code>geth-2</code>的賬戶位址：</p>
<pre><code class="sh">&gt; consumer = &quot;0xf8c70df559cb9225f6e426d0f139fd6e8752c644&quot;
&quot;0xf8c70df559cb9225f6e426d0f139fd6e8752c644&quot;
</code></pre>
<p>完成上述後，首先要將賬戶解鎖：</p>
<pre><code class="sh">&gt; personal.unlockAccount(kairen)
true
</code></pre>
<blockquote>
<p>輸入當初建立賬戶的密碼。</p>
</blockquote>
<p>並透過 eth API 的交易函式還將 ether balance 數值轉移：</p>
<pre><code class="sh">$ eth.sendTransaction({from: kairen, to: consumer, value: web3.toWei(10, &quot;ether&quot;)})
&quot;0x1aee9082a55751c59077a273e7b08acd028d5099a4986f002518b0c8919d9e36&quot;
</code></pre>
<p>若有在每一台 geth 節點上進入 debug 模式的話，會發現該交易資訊被存到一個區塊，這邊也可以透過 txpool 與 eth API 來查看：</p>
<pre><code class="sh">&gt; txpool.status
{
  pending: 1,
  queued: 0
}

&gt; eth.getBlock(&quot;pending&quot;, true).transactions
[{
    blockHash: &quot;0x0b58d0b17e02f56746b0b5b22f195b6ae71d47343bf778763c4c476386ad7db7&quot;,
    blockNumber: 112,
    from: &quot;0xcb41ad8ba28c4b8b52eee159ef3bb6da197ff60b&quot;,
    gas: 90000,
    gasPrice: 20000000000,
    hash: &quot;0x1aee9082a55751c59077a273e7b08acd028d5099a4986f002518b0c8919d9e36&quot;,
    input: &quot;0x&quot;,
    nonce: 0,
    to: &quot;0xf8c70df559cb9225f6e426d0f139fd6e8752c644&quot;,
    transactionIndex: 0,
    value: 10000000000000000000
}]
</code></pre>
<blockquote>
<p>這邊的<code>pending</code>表示目前還沒有被驗證，因此我們需要一些節點來進行採礦驗證。這邊也可以發現該交易資訊被存在區塊編號<code>112</code>，可以提供往後查詢之用。</p>
</blockquote>
<p>接著回到<code>geth-2</code>節點，查看目前的數值變化：</p>
<pre><code class="sh">&gt; web3.fromWei(eth.getBalance(pingyu), &quot;ether&quot;);
0
</code></pre>
<p>這邊會發現沒有任何錢進來，Why? so sad。其實是因為該區塊還沒有被採集與認證，因此該交易不會被執行。</p>
<p>因此我們需要在任一節點提供運算，這邊在<code>geth-1</code>執行以下指令來進行採礦，這樣就可以看到該交易被驗證與接受：</p>
<pre><code class="sh">&gt; miner.start(1)
true

TX(1aee9082a55751c59077a273e7b08acd028d5099a4986f002518b0c8919d9e36)
Contract: false
From:     cb41ad8ba28c4b8b52eee159ef3bb6da197ff60b
To:       f8c70df559cb9225f6e426d0f139fd6e8752c644
Nonce:    0
GasPrice: 20000000000
GasLimit  90000
Value:    10000000000000000000
Data:     0x
V:        0x1c
R:        0x9de7d843959f55a553577dc68a887893adf1b80eccd872021dfa6b8bcf3db43
S:        0x287f8e01640ccd5924308725d2d274def7edc4a18169b36ae26c95216fdf0fed
Hex:      f86d808504a817c80083015f9094f8c70df559cb9225f6e426d0f139fd6e8752c644888ac7230489e80000801ca009de7d843959f55a553577dc68a887893adf1b80eccd872021dfa6b8bcf3db43a0287f8e01640ccd5924308725d2d274def7edc4a18169b36ae26c95216fdf0fed
</code></pre>
<blockquote>
<p>當該區塊的交易確認沒問題被執行後，就可以透過<code>miner.stop()</code>停止採礦。</p>
</blockquote>
<p>這時再回到<code>geth-2</code>節點，查看目前的數值變化，會發現增加了 10 枚乙太幣：</p>
<pre><code class="sh">&gt; web3.fromWei(eth.getBalance(pingyu), &quot;ether&quot;);
10
</code></pre>
<p>之後可以在任一節點透過 eth web3 的 API 來查找指定區塊的交易資訊：</p>
<pre><code class="sh">&gt; eth.getTransactionFromBlock(40)
{
  blockHash: &quot;0xe839c1392657731417fc04b9aecf7a181dd339086d5f7cdea0bccc2b1483b885&quot;,
  blockNumber: 112,
  from: &quot;0xcb41ad8ba28c4b8b52eee159ef3bb6da197ff60b&quot;,
  gas: 90000,
  gasPrice: 20000000000,
  hash: &quot;0x1aee9082a55751c59077a273e7b08acd028d5099a4986f002518b0c8919d9e36&quot;,
  input: &quot;0x&quot;,
  nonce: 0,
  to: &quot;0xf8c70df559cb9225f6e426d0f139fd6e8752c644&quot;,
  transactionIndex: 0,
  value: 10000000000000000000
}
</code></pre>
<h2 id="簡單的-Contract"><a href="#簡單的-Contract" class="headerlink" title="簡單的 Contract"></a>簡單的 Contract</h2><p>這邊將說明如何建立一個簡單的合約(Contract)來部署於區塊鏈上，首先複製以下內容：</p>
<pre><code>contract SimpleStorage {
    uint storedData;
    function set(uint x) {
        storedData = x;
    }
    function get() constant returns (uint retVal) {
        return storedData;
    }
}
</code></pre><p>接著將內容貼到 <a href="https://ethereum.github.io/browser-solidity" target="_blank" rel="noopener">browser-solidity</a> 進行編譯成 JavaScript。如快照畫面所示。</p>
<p><img src="/images/blockchain/snapshot-contract.png" alt></p>
<p>透過這個 IDE 可以將 Solidity 語言轉換成 web3 code(JavaScript)，複製 web3 code 的內容，並儲存成<code>SimpleStorage.js</code>檔案放置到<code>geth-1</code>上。接著 attach 進入 geth 執行以下指令：</p>
<pre><code class="sh">&gt; loadScript(&#39;SimpleStorage.js&#39;);
</code></pre>
<p>若有自行安裝<code>browser-solidity</code>的話，則可以使用如下圖一樣的方式連接。</p>
<p><img src="/images/blockchain/snapshot-dash-web3-provider.png" alt></p>

                

                <hr>
                <!-- Pager -->
                <ul class="pager">
                    
                        <li class="previous">
                            <a href="/2017/05/26/blockchain/geth-monitoring/" data-toggle="tooltip" data-placement="top" title="監控 Go Ethereum 的區塊鏈狀況">&larr; Previous Post</a>
                        </li>
                    
                    
                        <li class="next">
                            <a href="/2017/05/10/container/harbor-install/" data-toggle="tooltip" data-placement="top" title="Enterprise 的 Docker registry 平台 Harbor">Next Post &rarr;</a>
                        </li>
                    
                </ul>

                <!-- duoshuo Share start -->
                
                <!-- 多说 Share end-->

                <!-- 多说评论框 start -->
                
                <!-- 多说评论框 end -->

                <!-- disqus comment start -->
                
                    <div class="comment">
                        <div id="disqus_thread" class="disqus-thread"></div>
                    </div>
                
                <!-- disqus comment end -->
            </div>
            
            <!-- Tabe of Content -->
            <!-- Table of Contents -->

    
      <aside id="sidebar">
        <div id="toc" class="toc-article">
        <strong class="toc-title">Contents</strong>
        
          <ol class="toc-nav"><li class="toc-nav-item toc-nav-level-2"><a class="toc-nav-link" href="#事前準備"><span class="toc-nav-number">1.</span> <span class="toc-nav-text">事前準備</span></a></li><li class="toc-nav-item toc-nav-level-2"><a class="toc-nav-link" href="#建立-Ethereum-環境"><span class="toc-nav-number">2.</span> <span class="toc-nav-text">建立 Ethereum 環境</span></a></li><li class="toc-nav-item toc-nav-level-2"><a class="toc-nav-link" href="#驗證服務"><span class="toc-nav-number">3.</span> <span class="toc-nav-text">驗證服務</span></a></li><li class="toc-nav-item toc-nav-level-2"><a class="toc-nav-link" href="#簡單的-Contract"><span class="toc-nav-number">4.</span> <span class="toc-nav-text">簡單的 Contract</span></a></li></ol>
        
        </div>
      </aside>
    

                
            <!-- Sidebar Container -->
            <div class="
                col-lg-8 col-lg-offset-2
                col-md-10 col-md-offset-1
                sidebar-container">

                <!-- Featured Tags -->
                
                <section>
                    <!-- no hr -->
                    <h5><a href="/tags/">FEATURED TAGS</a></h5>
                    <div class="tags">
                       
                          <a class="tag" href="/tags/#Ethereum" title="Ethereum">Ethereum</a>
                        
                          <a class="tag" href="/tags/#Blockchain" title="Blockchain">Blockchain</a>
                        
                    </div>
                </section>
                

                <!-- Friends Blog -->
                
                <hr>
                <h5>FRIENDS</h5>
                <ul class="list-inline">

                    
                        <li><a href="https://hwchiu.com" target="_blank">威猛邱牛的部落格</a></li>
                    
                        <li><a href="http://www.evanlin.com" target="_blank">吃草爸爸的部落格</a></li>
                    
                        <li><a href="https://ellis-wu.github.io" target="_blank">跟我一樣可悲的同事部落格</a></li>
                    
                        <li><a href="https://blog.pichuang.com.tw" target="_blank">小飛機的部落格</a></li>
                    
                        <li><a href="https://bestsamina.github.io/" target="_blank">超猛姍蓉的部落格</a></li>
                    
                        <li><a href="https://igene.tw" target="_blank">郭大俠的部落格</a></li>
                    
                </ul>
                
            </div>
        </div>
    </div>
</article>




<!-- disqus embedded js code start (one page only need to embed once) -->
<script type="text/javascript">
    /* * * CONFIGURATION VARIABLES * * */
    var disqus_shortname = "shenhengheng";
    var disqus_identifier = "https://readailib.github.io/2017/05/25/blockchain/multi-node-geth/";
    var disqus_url = "https://readailib.github.io/2017/05/25/blockchain/multi-node-geth/";

    (function() {
        var dsq = document.createElement('script'); dsq.type = 'text/javascript'; dsq.async = true;
        dsq.src = '//' + disqus_shortname + '.disqus.com/embed.js';
        (document.getElementsByTagName('head')[0] || document.getElementsByTagName('body')[0]).appendChild(dsq);
    })();
</script>
<!-- disqus embedded js code start end -->




<!-- async load function -->
<script>
    function async(u, c) {
      var d = document, t = 'script',
          o = d.createElement(t),
          s = d.getElementsByTagName(t)[0];
      o.src = u;
      if (c) { o.addEventListener('load', function (e) { c(null, e); }, false); }
      s.parentNode.insertBefore(o, s);
    }
</script>
<!-- anchor-js, Doc:http://bryanbraun.github.io/anchorjs/ -->
<script>
    async("https://cdn.bootcss.com/anchor-js/1.1.1/anchor.min.js",function(){
        anchors.options = {
          visible: 'hover',
          placement: 'left',
          icon: 'ℬ'
        };
        anchors.add().remove('.intro-header h1').remove('.subheading').remove('.sidebar-container h5');
    })
</script>
<style>
    /* place left on bigger screen */
    @media all and (min-width: 800px) {
        .anchorjs-link{
            position: absolute;
            left: -0.75em;
            font-size: 1.1em;
            margin-top : -0.1em;
        }
    }
</style>



    <!-- Footer -->
    <!-- Footer -->
<footer>
    <div class="container">
        <div class="row">
            <div class="col-lg-8 col-lg-offset-2 col-md-10 col-md-offset-1">
                <ul class="list-inline text-center">
                
                    <li>
                        <a href="/atom.xml">
                            <span class="fa-stack fa-lg">
                                <i class="fa fa-circle fa-stack-2x"></i>
                                <i class="fa fa-rss fa-stack-1x fa-inverse"></i>
                            </span>
                        </a>
                    </li>
                
                
                    <li>
                        <a target="_blank" href="https://twitter.com/shenhengheng">
                            <span class="fa-stack fa-lg">
                                <i class="fa fa-circle fa-stack-2x"></i>
                                <i class="fa fa-twitter fa-stack-1x fa-inverse"></i>
                            </span>
                        </a>
                    </li>
                
                

                

                
                    <li>
                        <a target="_blank" href="https://www.facebook.com/shenhengheng">
                            <span class="fa-stack fa-lg">
                                <i class="fa fa-circle fa-stack-2x"></i>
                                <i class="fa fa-facebook fa-stack-1x fa-inverse"></i>
                            </span>
                        </a>
                    </li>
                

                
                    <li>
                        <a target="_blank" href="https://github.com/rh01">
                            <span class="fa-stack fa-lg">
                                <i class="fa fa-circle fa-stack-2x"></i>
                                <i class="fa fa-github fa-stack-1x fa-inverse"></i>
                            </span>
                        </a>
                    </li>
                

                
                    <li>
                        <a target="_blank" href="https://www.linkedin.com/in/heng960509">
                            <span class="fa-stack fa-lg">
                                <i class="fa fa-circle fa-stack-2x"></i>
                                <i class="fa fa-linkedin fa-stack-1x fa-inverse"></i>
                            </span>
                        </a>
                    </li>
                

                </ul>
                <p class="copyright text-muted">
                    Copyright &copy; ShenHengheng 2019
                    <br>
                    Theme by <a href="http://huangxuan.me">Hux</a>
                    <span style="display: inline-block; margin: 0 5px;">
                        <i class="fa fa-heart"></i>
                    </span>
                    re-Ported by <a href="http://beantech.org">BeanTech</a> |
                    <iframe style="margin-left: 2px; margin-bottom:-5px;" frameborder="0" scrolling="0" width="91px" height="20px" src="https://ghbtns.com/github-btn.html?user=YenYuHsuan&repo=hexo-theme-beantech&type=star&count=true">
                    </iframe>
                </p>
            </div>
        </div>
    </div>
</footer>

<!-- jQuery -->
<script src="/js/jquery.min.js"></script>

<!-- Bootstrap Core JavaScript -->
<script src="/js/bootstrap.min.js"></script>

<!-- Custom Theme JavaScript -->
<script src="/js/hux-blog.min.js"></script>


<!-- async load function -->
<script>
    function async(u, c) {
      var d = document, t = 'script',
          o = d.createElement(t),
          s = d.getElementsByTagName(t)[0];
      o.src = u;
      if (c) { o.addEventListener('load', function (e) { c(null, e); }, false); }
      s.parentNode.insertBefore(o, s);
    }
</script>

<!-- jquery.tagcloud.js -->
<script>
    // only load tagcloud.js in tag.html
    if($('#tag_cloud').length !== 0){
        async("https://readailib.github.io/js/jquery.tagcloud.js",function(){
            $.fn.tagcloud.defaults = {
                //size: {start: 1, end: 1, unit: 'em'},
                color: {start: '#bbbbee', end: '#0085a1'},
            };
            $('#tag_cloud a').tagcloud();
        })
    }
</script>

<!--fastClick.js -->
<script>
    async("https://cdn.bootcss.com/fastclick/1.0.6/fastclick.min.js", function(){
        var $nav = document.querySelector("nav");
        if($nav) FastClick.attach($nav);
    })
</script>


<!-- Google Analytics -->




<!-- Baidu Tongji -->



<!-- Highlight.js -->
<link rel="stylesheet" href="//cdnjs.cloudflare.com/ajax/libs/highlight.js/9.12.0/styles/atom-one-dark.min.css">
<script src="//cdnjs.cloudflare.com/ajax/libs/highlight.js/9.12.0/highlight.min.js"></script>
<script>
    hljs.initHighlightingOnLoad();
</script>




	<a id="rocket" href="#top" class=""></a>
	<script type="text/javascript" src="/js/totop.js?v=1.0.0" async=""></script>
    <script type="text/javascript" src="/js/toc.js?v=1.0.0" async=""></script>
<!-- Image to hack wechat -->
<img src="https://readailib.github.io/img/icon_wechat.png" width="0" height="0" />
<!-- Migrate from head to bottom, no longer block render and still work -->

</body>

</html>
